{
  "_format": "hh-sol-artifact-1",
  "contractName": "NameServiceContract",
  "sourceName": "contracts/NameServiceContract.sol",
  "abi": [
    {
      "inputs": [],
      "stateMutability": "nonpayable",
      "type": "constructor"
    },
    {
      "inputs": [
        {
          "internalType": "address",
          "name": "",
          "type": "address"
        }
      ],
      "name": "balances",
      "outputs": [
        {
          "internalType": "uint256",
          "name": "",
          "type": "uint256"
        }
      ],
      "stateMutability": "view",
      "type": "function"
    },
    {
      "inputs": [
        {
          "internalType": "string",
          "name": "name",
          "type": "string"
        }
      ],
      "name": "calculateFee",
      "outputs": [
        {
          "internalType": "uint256",
          "name": "",
          "type": "uint256"
        }
      ],
      "stateMutability": "pure",
      "type": "function"
    },
    {
      "inputs": [],
      "name": "deposit",
      "outputs": [],
      "stateMutability": "payable",
      "type": "function"
    },
    {
      "inputs": [],
      "name": "lockedFund",
      "outputs": [
        {
          "internalType": "uint256",
          "name": "",
          "type": "uint256"
        }
      ],
      "stateMutability": "view",
      "type": "function"
    },
    {
      "inputs": [],
      "name": "lockupPeriod",
      "outputs": [
        {
          "internalType": "uint256",
          "name": "",
          "type": "uint256"
        }
      ],
      "stateMutability": "view",
      "type": "function"
    },
    {
      "inputs": [
        {
          "internalType": "address",
          "name": "",
          "type": "address"
        }
      ],
      "name": "names",
      "outputs": [
        {
          "internalType": "string",
          "name": "str",
          "type": "string"
        },
        {
          "internalType": "uint256",
          "name": "lastTimestamp",
          "type": "uint256"
        },
        {
          "internalType": "address",
          "name": "acc",
          "type": "address"
        },
        {
          "internalType": "bool",
          "name": "isLock",
          "type": "bool"
        },
        {
          "internalType": "uint256",
          "name": "lockedFunds",
          "type": "uint256"
        }
      ],
      "stateMutability": "view",
      "type": "function"
    },
    {
      "inputs": [
        {
          "internalType": "string",
          "name": "name",
          "type": "string"
        }
      ],
      "name": "registerName",
      "outputs": [],
      "stateMutability": "nonpayable",
      "type": "function"
    },
    {
      "inputs": [
        {
          "internalType": "string",
          "name": "",
          "type": "string"
        }
      ],
      "name": "registeredAccounts",
      "outputs": [
        {
          "internalType": "address",
          "name": "",
          "type": "address"
        }
      ],
      "stateMutability": "view",
      "type": "function"
    },
    {
      "inputs": [],
      "name": "renewName",
      "outputs": [],
      "stateMutability": "nonpayable",
      "type": "function"
    },
    {
      "inputs": [],
      "name": "viewLastTimestamp",
      "outputs": [
        {
          "internalType": "uint256",
          "name": "",
          "type": "uint256"
        }
      ],
      "stateMutability": "view",
      "type": "function"
    },
    {
      "inputs": [],
      "name": "viewName",
      "outputs": [
        {
          "internalType": "string",
          "name": "",
          "type": "string"
        }
      ],
      "stateMutability": "view",
      "type": "function"
    },
    {
      "inputs": [
        {
          "internalType": "string",
          "name": "name",
          "type": "string"
        }
      ],
      "name": "viewOwner",
      "outputs": [
        {
          "internalType": "address",
          "name": "",
          "type": "address"
        }
      ],
      "stateMutability": "view",
      "type": "function"
    },
    {
      "inputs": [
        {
          "internalType": "uint256",
          "name": "amount",
          "type": "uint256"
        }
      ],
      "name": "withdraw",
      "outputs": [],
      "stateMutability": "nonpayable",
      "type": "function"
    }
  ],
  "bytecode": "0x608060405234801561001057600080fd5b50611dbe806100206000396000f3fe6080604052600436106100c25760003560e01c80636d169b1a1161007f578063cea1fa0411610059578063cea1fa041461027e578063d0e30db0146102a9578063ddf88dfc146102b3578063ee947a7c146102f0576100c2565b80636d169b1a14610211578063b5f10b381461023c578063be3c00e414610267576100c2565b8063042763ad146100c75780630830602b1461010457806327e235e31461012d5780632e1a7d4d1461016a5780635cf3d346146101935780636229d87c146101d4575b600080fd5b3480156100d357600080fd5b506100ee60048036038101906100e99190611710565b61031b565b6040516100fb9190611a09565b60405180910390f35b34801561011057600080fd5b5061012b60048036038101906101269190611710565b610326565b005b34801561013957600080fd5b50610154600480360381019061014f91906116a2565b610c4b565b6040516101619190611a09565b60405180910390f35b34801561017657600080fd5b50610191600480360381019061018c9190611751565b610c63565b005b34801561019f57600080fd5b506101ba60048036038101906101b591906116a2565b610fb3565b6040516101cb95949392919061192f565b60405180910390f35b3480156101e057600080fd5b506101fb60048036038101906101f69190611710565b61109e565b60405161020891906118f2565b60405180910390f35b34801561021d57600080fd5b506102266110e7565b6040516102339190611a09565b60405180910390f35b34801561024857600080fd5b50610251611131565b60405161025e919061190d565b60405180910390f35b34801561027357600080fd5b5061027c611294565b005b34801561028a57600080fd5b506102936112dd565b6040516102a09190611a09565b60405180910390f35b6102b1611327565b005b3480156102bf57600080fd5b506102da60048036038101906102d591906116cb565b61137f565b6040516102e791906118f2565b60405180910390f35b3480156102fc57600080fd5b506103056114de565b6040516103129190611a09565b60405180910390f35b600081519050919050565b600073ffffffffffffffffffffffffffffffffffffffff1660026000808460405161035191906118db565b908152602001604051809103902060009054906101000a900473ffffffffffffffffffffffffffffffffffffffff1673ffffffffffffffffffffffffffffffffffffffff1673ffffffffffffffffffffffffffffffffffffffff16815260200190815260200160002060020160009054906101000a900473ffffffffffffffffffffffffffffffffffffffff1673ffffffffffffffffffffffffffffffffffffffff161415801561048d5750607860026000808460405161041291906118db565b908152602001604051809103902060009054906101000a900473ffffffffffffffffffffffffffffffffffffffff1673ffffffffffffffffffffffffffffffffffffffff1673ffffffffffffffffffffffffffffffffffffffff168152602001908152602001600020600101546104899190611aa1565b4210155b156106855760006002600080846040516104a791906118db565b908152602001604051809103902060009054906101000a900473ffffffffffffffffffffffffffffffffffffffff1673ffffffffffffffffffffffffffffffffffffffff1673ffffffffffffffffffffffffffffffffffffffff1681526020019081526020016000206003015490508060016000808560405161052a91906118db565b908152602001604051809103902060009054906101000a900473ffffffffffffffffffffffffffffffffffffffff1673ffffffffffffffffffffffffffffffffffffffff1673ffffffffffffffffffffffffffffffffffffffff16815260200190815260200160002060008282546105a29190611aa1565b925050819055506002600080846040516105bc91906118db565b908152602001604051809103902060009054906101000a900473ffffffffffffffffffffffffffffffffffffffff1673ffffffffffffffffffffffffffffffffffffffff1673ffffffffffffffffffffffffffffffffffffffff1681526020019081526020016000206000808201600061063691906114e3565b60018201600090556002820160006101000a81549073ffffffffffffffffffffffffffffffffffffffff02191690556002820160146101000a81549060ff021916905560038201600090555050505b600073ffffffffffffffffffffffffffffffffffffffff16600260003373ffffffffffffffffffffffffffffffffffffffff1673ffffffffffffffffffffffffffffffffffffffff16815260200190815260200160002060020160009054906101000a900473ffffffffffffffffffffffffffffffffffffffff1673ffffffffffffffffffffffffffffffffffffffff161415801561077257506078600260003373ffffffffffffffffffffffffffffffffffffffff1673ffffffffffffffffffffffffffffffffffffffff1681526020019081526020016000206001015461076e9190611aa1565b4210155b156108b3576000600260003373ffffffffffffffffffffffffffffffffffffffff1673ffffffffffffffffffffffffffffffffffffffff16815260200190815260200160002060030154905080600160003373ffffffffffffffffffffffffffffffffffffffff1673ffffffffffffffffffffffffffffffffffffffff168152602001908152602001600020600082825461080d9190611aa1565b92505081905550600260003373ffffffffffffffffffffffffffffffffffffffff1673ffffffffffffffffffffffffffffffffffffffff1681526020019081526020016000206000808201600061086491906114e3565b60018201600090556002820160006101000a81549073ffffffffffffffffffffffffffffffffffffffff02191690556002820160146101000a81549060ff021916905560038201600090555050505b600073ffffffffffffffffffffffffffffffffffffffff166002600080846040516108de91906118db565b908152602001604051809103902060009054906101000a900473ffffffffffffffffffffffffffffffffffffffff1673ffffffffffffffffffffffffffffffffffffffff1673ffffffffffffffffffffffffffffffffffffffff16815260200190815260200160002060020160009054906101000a900473ffffffffffffffffffffffffffffffffffffffff1673ffffffffffffffffffffffffffffffffffffffff16146109c1576040517f08c379a00000000000000000000000000000000000000000000000000000000081526004016109b8906119c9565b60405180910390fd5b600260003373ffffffffffffffffffffffffffffffffffffffff1673ffffffffffffffffffffffffffffffffffffffff16815260200190815260200160002060020160149054906101000a900460ff1615610a1b57600080fd5b6000610a268261031b565b905080600160003373ffffffffffffffffffffffffffffffffffffffff1673ffffffffffffffffffffffffffffffffffffffff168152602001908152602001600020541015610a7457600080fd5b80600160003373ffffffffffffffffffffffffffffffffffffffff1673ffffffffffffffffffffffffffffffffffffffff1681526020019081526020016000206000828254610ac39190611af7565b9250508190555060006040518060a001604052808481526020014281526020013373ffffffffffffffffffffffffffffffffffffffff16815260200160011515815260200183815250905080600260003373ffffffffffffffffffffffffffffffffffffffff1673ffffffffffffffffffffffffffffffffffffffff1681526020019081526020016000206000820151816000019080519060200190610b6a929190611523565b506020820151816001015560408201518160020160006101000a81548173ffffffffffffffffffffffffffffffffffffffff021916908373ffffffffffffffffffffffffffffffffffffffff16021790555060608201518160020160146101000a81548160ff0219169083151502179055506080820151816003015590505033600084604051610bfa91906118db565b908152602001604051809103902060006101000a81548173ffffffffffffffffffffffffffffffffffffffff021916908373ffffffffffffffffffffffffffffffffffffffff160217905550505050565b60016020528060005260406000206000915090505481565b600073ffffffffffffffffffffffffffffffffffffffff16600260003373ffffffffffffffffffffffffffffffffffffffff1673ffffffffffffffffffffffffffffffffffffffff16815260200190815260200160002060020160009054906101000a900473ffffffffffffffffffffffffffffffffffffffff1673ffffffffffffffffffffffffffffffffffffffff1614158015610d5057506078600260003373ffffffffffffffffffffffffffffffffffffffff1673ffffffffffffffffffffffffffffffffffffffff16815260200190815260200160002060010154610d4c9190611aa1565b4210155b15610e91576000600260003373ffffffffffffffffffffffffffffffffffffffff1673ffffffffffffffffffffffffffffffffffffffff16815260200190815260200160002060030154905080600160003373ffffffffffffffffffffffffffffffffffffffff1673ffffffffffffffffffffffffffffffffffffffff1681526020019081526020016000206000828254610deb9190611aa1565b92505081905550600260003373ffffffffffffffffffffffffffffffffffffffff1673ffffffffffffffffffffffffffffffffffffffff16815260200190815260200160002060008082016000610e4291906114e3565b60018201600090556002820160006101000a81549073ffffffffffffffffffffffffffffffffffffffff02191690556002820160146101000a81549060ff021916905560038201600090555050505b600160003373ffffffffffffffffffffffffffffffffffffffff1673ffffffffffffffffffffffffffffffffffffffff16815260200190815260200160002054811115610f13576040517f08c379a0000000000000000000000000000000000000000000000000000000008152600401610f0a906119a9565b60405180910390fd5b80600160003373ffffffffffffffffffffffffffffffffffffffff1673ffffffffffffffffffffffffffffffffffffffff1681526020019081526020016000206000828254610f629190611af7565b925050819055503373ffffffffffffffffffffffffffffffffffffffff166108fc829081150290604051600060405180830381858888f19350505050158015610faf573d6000803e3d6000fd5b5050565b6002602052806000526040600020600091509050806000018054610fd690611bb5565b80601f016020809104026020016040519081016040528092919081815260200182805461100290611bb5565b801561104f5780601f106110245761010080835404028352916020019161104f565b820191906000526020600020905b81548152906001019060200180831161103257829003601f168201915b5050505050908060010154908060020160009054906101000a900473ffffffffffffffffffffffffffffffffffffffff16908060020160149054906101000a900460ff16908060030154905085565b6000818051602081018201805184825260208301602085012081835280955050505050506000915054906101000a900473ffffffffffffffffffffffffffffffffffffffff1681565b6000600260003373ffffffffffffffffffffffffffffffffffffffff1673ffffffffffffffffffffffffffffffffffffffff16815260200190815260200160002060010154905090565b60606078600260003373ffffffffffffffffffffffffffffffffffffffff1673ffffffffffffffffffffffffffffffffffffffff168152602001908152602001600020600101546111829190611aa1565b4211156111c4576040517f08c379a00000000000000000000000000000000000000000000000000000000081526004016111bb906119e9565b60405180910390fd5b600260003373ffffffffffffffffffffffffffffffffffffffff1673ffffffffffffffffffffffffffffffffffffffff168152602001908152602001600020600001805461121190611bb5565b80601f016020809104026020016040519081016040528092919081815260200182805461123d90611bb5565b801561128a5780601f1061125f5761010080835404028352916020019161128a565b820191906000526020600020905b81548152906001019060200180831161126d57829003601f168201915b5050505050905090565b42600260003373ffffffffffffffffffffffffffffffffffffffff1673ffffffffffffffffffffffffffffffffffffffff16815260200190815260200160002060010181905550565b6000600260003373ffffffffffffffffffffffffffffffffffffffff1673ffffffffffffffffffffffffffffffffffffffff16815260200190815260200160002060030154905090565b34600160003373ffffffffffffffffffffffffffffffffffffffff1673ffffffffffffffffffffffffffffffffffffffff16815260200190815260200160002060008282546113769190611aa1565b92505081905550565b600082828080601f016020809104026020016040519081016040528093929190818152602001838380828437600081840152601f19601f8201169050808301925050505050505060786002600080846040516113db91906118db565b908152602001604051809103902060009054906101000a900473ffffffffffffffffffffffffffffffffffffffff1673ffffffffffffffffffffffffffffffffffffffff1673ffffffffffffffffffffffffffffffffffffffff168152602001908152602001600020600101546114529190611aa1565b421115611494576040517f08c379a000000000000000000000000000000000000000000000000000000000815260040161148b90611989565b60405180910390fd5b600084846040516114a69291906118c2565b908152602001604051809103902060009054906101000a900473ffffffffffffffffffffffffffffffffffffffff1691505092915050565b607881565b5080546114ef90611bb5565b6000825580601f106115015750611520565b601f01602090049060005260206000209081019061151f91906115a9565b5b50565b82805461152f90611bb5565b90600052602060002090601f0160209004810192826115515760008555611598565b82601f1061156a57805160ff1916838001178555611598565b82800160010185558215611598579182015b8281111561159757825182559160200191906001019061157c565b5b5090506115a591906115a9565b5090565b5b808211156115c25760008160009055506001016115aa565b5090565b60006115d96115d484611a49565b611a24565b9050828152602081018484840111156115f157600080fd5b6115fc848285611b73565b509392505050565b60008135905061161381611d5a565b92915050565b60008083601f84011261162b57600080fd5b8235905067ffffffffffffffff81111561164457600080fd5b60208301915083600182028301111561165c57600080fd5b9250929050565b600082601f83011261167457600080fd5b81356116848482602086016115c6565b91505092915050565b60008135905061169c81611d71565b92915050565b6000602082840312156116b457600080fd5b60006116c284828501611604565b91505092915050565b600080602083850312156116de57600080fd5b600083013567ffffffffffffffff8111156116f857600080fd5b61170485828601611619565b92509250509250929050565b60006020828403121561172257600080fd5b600082013567ffffffffffffffff81111561173c57600080fd5b61174884828501611663565b91505092915050565b60006020828403121561176357600080fd5b60006117718482850161168d565b91505092915050565b61178381611b2b565b82525050565b61179281611b3d565b82525050565b60006117a48385611a96565b93506117b1838584611b73565b82840190509392505050565b60006117c882611a7a565b6117d28185611a85565b93506117e2818560208601611b82565b6117eb81611ca5565b840191505092915050565b600061180182611a7a565b61180b8185611a96565b935061181b818560208601611b82565b80840191505092915050565b6000611834600e83611a85565b915061183f82611cb6565b602082019050919050565b6000611857601483611a85565b915061186282611cdf565b602082019050919050565b600061187a601383611a85565b915061188582611d08565b602082019050919050565b600061189d600c83611a85565b91506118a882611d31565b602082019050919050565b6118bc81611b69565b82525050565b60006118cf828486611798565b91508190509392505050565b60006118e782846117f6565b915081905092915050565b6000602082019050611907600083018461177a565b92915050565b6000602082019050818103600083015261192781846117bd565b905092915050565b600060a082019050818103600083015261194981886117bd565b905061195860208301876118b3565b611965604083018661177a565b6119726060830185611789565b61197f60808301846118b3565b9695505050505050565b600060208201905081810360008301526119a281611827565b9050919050565b600060208201905081810360008301526119c28161184a565b9050919050565b600060208201905081810360008301526119e28161186d565b9050919050565b60006020820190508181036000830152611a0281611890565b9050919050565b6000602082019050611a1e60008301846118b3565b92915050565b6000611a2e611a3f565b9050611a3a8282611be7565b919050565b6000604051905090565b600067ffffffffffffffff821115611a6457611a63611c76565b5b611a6d82611ca5565b9050602081019050919050565b600081519050919050565b600082825260208201905092915050565b600081905092915050565b6000611aac82611b69565b9150611ab783611b69565b9250827fffffffffffffffffffffffffffffffffffffffffffffffffffffffffffffffff03821115611aec57611aeb611c18565b5b828201905092915050565b6000611b0282611b69565b9150611b0d83611b69565b925082821015611b2057611b1f611c18565b5b828203905092915050565b6000611b3682611b49565b9050919050565b60008115159050919050565b600073ffffffffffffffffffffffffffffffffffffffff82169050919050565b6000819050919050565b82818337600083830152505050565b60005b83811015611ba0578082015181840152602081019050611b85565b83811115611baf576000848401525b50505050565b60006002820490506001821680611bcd57607f821691505b60208210811415611be157611be0611c47565b5b50919050565b611bf082611ca5565b810181811067ffffffffffffffff82111715611c0f57611c0e611c76565b5b80604052505050565b7f4e487b7100000000000000000000000000000000000000000000000000000000600052601160045260246000fd5b7f4e487b7100000000000000000000000000000000000000000000000000000000600052602260045260246000fd5b7f4e487b7100000000000000000000000000000000000000000000000000000000600052604160045260246000fd5b6000601f19601f8301169050919050565b7f6e616d6520617661696c61626c65000000000000000000000000000000000000600082015250565b7f696e73756666696369656e742062616c616e6365000000000000000000000000600082015250565b7f4e616d6520616c726561647920696e2075736500000000000000000000000000600082015250565b7f6e616d6520657870697265640000000000000000000000000000000000000000600082015250565b611d6381611b2b565b8114611d6e57600080fd5b50565b611d7a81611b69565b8114611d8557600080fd5b5056fea2646970667358221220d631c12df7e23fabd0b2cdfd97745cfc46f55e6d9ad1f724e6f3576efb89ab6164736f6c63430008040033",
  "linkReferences": {},
  "deployedLinkReferences": {}
}